:1000000000308A0004280000FF238316900000308F
:100010008A00BD2829080739A000290CA100A10CDD
:10002000A10C1F30A10521082B078400A101A10A02
:10003000A00A1B28A10DA00B1A28AA08031923281F
:10004000210880042628A1092108800500341230E7
:10005000AA02031C39282A308400FC3080050310D2
:10006000800C800C00080319392837280000800B09
:100070003628003429308400000803194D28013047
:10008000A100A001A00B4228A10B41284A30A000EA
:10009000A00B48284B28800B3F280034A7012708D5
:1000A0000E3C031CBC28A801280F572878282608D6
:1000B000A9000130AA00AB010A202608A900AA0164
:1000C0008030AB000A202808AA0027202608A900B3
:1000D000AA01AB010A202608A900AA018030AB00C2
:1000E0000A202808FF3CA900AA002720A80A5428B3
:1000F0002608A9000130AA00AB010A202608A900A1
:10010000AA018030AB000A206430A9003A20A8017F
:10011000280F8B28AC282608A900AA01AB010A20C9
:100120002608A900AA018030AB000A202808AA00EE
:1001300027202608A9000130AA00AB010A202608C2
:10014000A900AA018030AB000A202808FF3CA900C2
:10015000AA002720A80A88282608A900AA01AB011E
:100160000A202608A900AA018030AB000A20963098
:10017000A9003A20A70A4F28003484011F308305C4
:100180000730990083160108C739083881008312A7
:100190009001073099008316050803308312A000F0
:1001A000A00BD02819088C1183169901051583120C
:1001B0000519DD282830A6004E20831685158312E8
:1001C0008519E5282930A6004E208316D62863001D
:02400E009431EB
:00000001FF
;PIC12F629
